{
  "contractName": "TIKVAHTokenCrowdsale",
  "abi": [
    {
      "inputs": [
        {
          "internalType": "uint256",
          "name": "rate",
          "type": "uint256"
        },
        {
          "internalType": "address payable",
          "name": "wallet",
          "type": "address"
        },
        {
          "internalType": "contract IERC20",
          "name": "token",
          "type": "address"
        },
        {
          "internalType": "uint256",
          "name": "cap",
          "type": "uint256"
        },
        {
          "internalType": "uint256",
          "name": "openingTime",
          "type": "uint256"
        },
        {
          "internalType": "uint256",
          "name": "closingTime",
          "type": "uint256"
        }
      ],
      "payable": false,
      "stateMutability": "nonpayable",
      "type": "constructor"
    },
    {
      "anonymous": false,
      "inputs": [
        {
          "indexed": true,
          "internalType": "address",
          "name": "purchaser",
          "type": "address"
        },
        {
          "indexed": true,
          "internalType": "address",
          "name": "beneficiary",
          "type": "address"
        },
        {
          "indexed": false,
          "internalType": "uint256",
          "name": "value",
          "type": "uint256"
        },
        {
          "indexed": false,
          "internalType": "uint256",
          "name": "amount",
          "type": "uint256"
        }
      ],
      "name": "TokensPurchased",
      "type": "event"
    },
    {
      "payable": true,
      "stateMutability": "payable",
      "type": "fallback"
    },
    {
      "constant": false,
      "inputs": [
        {
          "internalType": "address",
          "name": "beneficiary",
          "type": "address"
        }
      ],
      "name": "buyTokens",
      "outputs": [],
      "payable": true,
      "stateMutability": "payable",
      "type": "function"
    },
    {
      "constant": true,
      "inputs": [],
      "name": "cap",
      "outputs": [
        {
          "internalType": "uint256",
          "name": "",
          "type": "uint256"
        }
      ],
      "payable": false,
      "stateMutability": "view",
      "type": "function"
    },
    {
      "constant": true,
      "inputs": [],
      "name": "capReached",
      "outputs": [
        {
          "internalType": "bool",
          "name": "",
          "type": "bool"
        }
      ],
      "payable": false,
      "stateMutability": "view",
      "type": "function"
    },
    {
      "constant": true,
      "inputs": [],
      "name": "closingTime",
      "outputs": [
        {
          "internalType": "uint256",
          "name": "",
          "type": "uint256"
        }
      ],
      "payable": false,
      "stateMutability": "view",
      "type": "function"
    },
    {
      "constant": true,
      "inputs": [
        {
          "internalType": "address",
          "name": "",
          "type": "address"
        }
      ],
      "name": "contributions",
      "outputs": [
        {
          "internalType": "uint256",
          "name": "",
          "type": "uint256"
        }
      ],
      "payable": false,
      "stateMutability": "view",
      "type": "function"
    },
    {
      "constant": true,
      "inputs": [],
      "name": "hasClosed",
      "outputs": [
        {
          "internalType": "bool",
          "name": "",
          "type": "bool"
        }
      ],
      "payable": false,
      "stateMutability": "view",
      "type": "function"
    },
    {
      "constant": true,
      "inputs": [],
      "name": "investorHardCap",
      "outputs": [
        {
          "internalType": "uint256",
          "name": "",
          "type": "uint256"
        }
      ],
      "payable": false,
      "stateMutability": "view",
      "type": "function"
    },
    {
      "constant": true,
      "inputs": [],
      "name": "investorMinCap",
      "outputs": [
        {
          "internalType": "uint256",
          "name": "",
          "type": "uint256"
        }
      ],
      "payable": false,
      "stateMutability": "view",
      "type": "function"
    },
    {
      "constant": true,
      "inputs": [],
      "name": "isOpen",
      "outputs": [
        {
          "internalType": "bool",
          "name": "",
          "type": "bool"
        }
      ],
      "payable": false,
      "stateMutability": "view",
      "type": "function"
    },
    {
      "constant": true,
      "inputs": [],
      "name": "openingTime",
      "outputs": [
        {
          "internalType": "uint256",
          "name": "",
          "type": "uint256"
        }
      ],
      "payable": false,
      "stateMutability": "view",
      "type": "function"
    },
    {
      "constant": true,
      "inputs": [],
      "name": "rate",
      "outputs": [
        {
          "internalType": "uint256",
          "name": "",
          "type": "uint256"
        }
      ],
      "payable": false,
      "stateMutability": "view",
      "type": "function"
    },
    {
      "constant": true,
      "inputs": [],
      "name": "token",
      "outputs": [
        {
          "internalType": "contract IERC20",
          "name": "",
          "type": "address"
        }
      ],
      "payable": false,
      "stateMutability": "view",
      "type": "function"
    },
    {
      "constant": true,
      "inputs": [],
      "name": "wallet",
      "outputs": [
        {
          "internalType": "address payable",
          "name": "",
          "type": "address"
        }
      ],
      "payable": false,
      "stateMutability": "view",
      "type": "function"
    },
    {
      "constant": true,
      "inputs": [],
      "name": "weiRaised",
      "outputs": [
        {
          "internalType": "uint256",
          "name": "",
          "type": "uint256"
        }
      ],
      "payable": false,
      "stateMutability": "view",
      "type": "function"
    },
    {
      "constant": true,
      "inputs": [
        {
          "internalType": "address",
          "name": "beneficiary",
          "type": "address"
        }
      ],
      "name": "getUserContribution",
      "outputs": [
        {
          "internalType": "uint256",
          "name": "",
          "type": "uint256"
        }
      ],
      "payable": false,
      "stateMutability": "view",
      "type": "function"
    }
  ],
  "bytecode": "0x608060405266071afd498d00006008556802b5e3af16b188000060095534801561002857600080fd5b50604051610be6380380610be6833981810160405260c081101561004b57600080fd5b810190808051906020019092919080519060200190929190805190602001909291908051906020019092919080519060200190929190805190602001909291905050508181848888886001600081905550600083116100a957600080fd5b600073ffffffffffffffffffffffffffffffffffffffff168273ffffffffffffffffffffffffffffffffffffffff1614156100e357600080fd5b600073ffffffffffffffffffffffffffffffffffffffff168173ffffffffffffffffffffffffffffffffffffffff16141561011d57600080fd5b8260038190555081600260006101000a81548173ffffffffffffffffffffffffffffffffffffffff021916908373ffffffffffffffffffffffffffffffffffffffff16021790555080600160006101000a81548173ffffffffffffffffffffffffffffffffffffffff021916908373ffffffffffffffffffffffffffffffffffffffff160217905550505050600081116101b657600080fd5b8060058190555050428210156101cb57600080fd5b8181116101d757600080fd5b816006819055508060078190555050505050505050506109ea806101fc6000396000f3fe6080604052600436106100e85760003560e01c80634f9359451161008a578063bb8b2b4711610059578063bb8b2b471461033e578063ec8ac4d8146103a3578063ed5db874146103e7578063fc0c546a14610412576100e8565b80634f93594514610262578063521eb27314610291578063b25d7f54146102e8578063b7a8807c14610313576100e8565b80634042b66f116100c65780634042b66f1461017857806342e94c90146101a357806347535d7b146102085780634b6753bc14610237576100e8565b80631515bc2b146100f35780632c4e722e14610122578063355274ea1461014d575b6100f133610469565b005b3480156100ff57600080fd5b5061010861055d565b604051808215151515815260200191505060405180910390f35b34801561012e57600080fd5b50610137610569565b6040518082815260200191505060405180910390f35b34801561015957600080fd5b50610162610573565b6040518082815260200191505060405180910390f35b34801561018457600080fd5b5061018d61057d565b6040518082815260200191505060405180910390f35b3480156101af57600080fd5b506101f2600480360360208110156101c657600080fd5b81019080803573ffffffffffffffffffffffffffffffffffffffff169060200190929190505050610587565b6040518082815260200191505060405180910390f35b34801561021457600080fd5b5061021d61059f565b604051808215151515815260200191505060405180910390f35b34801561024357600080fd5b5061024c6105ba565b6040518082815260200191505060405180910390f35b34801561026e57600080fd5b506102776105c4565b604051808215151515815260200191505060405180910390f35b34801561029d57600080fd5b506102a66105d8565b604051808273ffffffffffffffffffffffffffffffffffffffff1673ffffffffffffffffffffffffffffffffffffffff16815260200191505060405180910390f35b3480156102f457600080fd5b506102fd610602565b6040518082815260200191505060405180910390f35b34801561031f57600080fd5b50610328610608565b6040518082815260200191505060405180910390f35b34801561034a57600080fd5b5061038d6004803603602081101561036157600080fd5b81019080803573ffffffffffffffffffffffffffffffffffffffff169060200190929190505050610612565b6040518082815260200191505060405180910390f35b6103e5600480360360208110156103b957600080fd5b81019080803573ffffffffffffffffffffffffffffffffffffffff169060200190929190505050610469565b005b3480156103f357600080fd5b506103fc61065b565b6040518082815260200191505060405180910390f35b34801561041e57600080fd5b50610427610661565b604051808273ffffffffffffffffffffffffffffffffffffffff1673ffffffffffffffffffffffffffffffffffffffff16815260200191505060405180910390f35b60016000808282540192505081905550600080549050600034905061048e838261068b565b600061049982610757565b90506104b08260045461077590919063ffffffff16565b6004819055506104c08482610794565b8373ffffffffffffffffffffffffffffffffffffffff163373ffffffffffffffffffffffffffffffffffffffff167f6faf93231a456e552dbc9961f58d9713ee4f2e69d15f1975b050ef0911053a7b8484604051808381526020018281526020019250505060405180910390a361053784836107a2565b61053f6107a6565b6105498483610811565b5050600054811461055957600080fd5b5050565b60006007544211905090565b6000600354905090565b6000600554905090565b6000600454905090565b600a6020528060005260406000206000915090505481565b600060065442101580156105b557506007544211155b905090565b6000600754905090565b60006005546105d161057d565b1015905090565b6000600260009054906101000a900473ffffffffffffffffffffffffffffffffffffffff16905090565b60085481565b6000600654905090565b6000600a60008373ffffffffffffffffffffffffffffffffffffffff1673ffffffffffffffffffffffffffffffffffffffff168152602001908152602001600020549050919050565b60095481565b6000600160009054906101000a900473ffffffffffffffffffffffffffffffffffffffff16905090565b6106958282610815565b6000600a60008473ffffffffffffffffffffffffffffffffffffffff1673ffffffffffffffffffffffffffffffffffffffff16815260200190815260200160002054905060006106ee838361077590919063ffffffff16565b9050600854811015801561070457506009548111155b61070d57600080fd5b80600a60008673ffffffffffffffffffffffffffffffffffffffff1673ffffffffffffffffffffffffffffffffffffffff1681526020019081526020016000208190555050505050565b600061076e6003548361082390919063ffffffff16565b9050919050565b60008082840190508381101561078a57600080fd5b8091505092915050565b61079e828261085d565b5050565b5050565b600260009054906101000a900473ffffffffffffffffffffffffffffffffffffffff1673ffffffffffffffffffffffffffffffffffffffff166108fc349081150290604051600060405180830381858888f1935050505015801561080e573d6000803e3d6000fd5b50565b5050565b61081f8282610933565b5050565b6000808314156108365760009050610857565b600082840290508284828161084757fe5b041461085257600080fd5b809150505b92915050565b610865610661565b73ffffffffffffffffffffffffffffffffffffffff166340c10f1983836040518363ffffffff1660e01b8152600401808373ffffffffffffffffffffffffffffffffffffffff1673ffffffffffffffffffffffffffffffffffffffff16815260200182815260200192505050602060405180830381600087803b1580156108eb57600080fd5b505af11580156108ff573d6000803e3d6000fd5b505050506040513d602081101561091557600080fd5b810190808051906020019092919050505061092f57600080fd5b5050565b61093d8282610969565b60055461095a8261094c61057d565b61077590919063ffffffff16565b111561096557600080fd5b5050565b600073ffffffffffffffffffffffffffffffffffffffff168273ffffffffffffffffffffffffffffffffffffffff1614156109a357600080fd5b60008114156109b157600080fd5b505056fea265627a7a72315820cbe69fd33b5454747e7fc7be8bff20136d5f6a9ec81d7cd81c28690fe959b3c964736f6c63430005100032",
  "source": "pragma solidity ^0.5.0;\r\n\r\nimport \"openzeppelin-solidity/contracts/crowdsale/Crowdsale.sol\";\r\nimport \"openzeppelin-solidity/contracts/crowdsale/emission/MintedCrowdsale.sol\";\r\nimport \"openzeppelin-solidity/contracts/crowdsale/validation/CappedCrowdsale.sol\";\r\nimport \"openzeppelin-solidity/contracts/crowdsale/validation/TimedCrowdsale.sol\";\r\n\r\ncontract TIKVAHTokenCrowdsale is Crowdsale, MintedCrowdsale, CappedCrowdsale, TimedCrowdsale {\r\n\r\n  // Track investor contributions\r\n    uint256 public investorMinCap = 2000000000000000; // 0.002 Ether\r\n    uint256 public investorHardCap = 50000000000000000000; // 50 Ether\r\n    mapping(address => uint256) public contributions;\r\n\r\n    constructor(\r\n        uint256 rate,\r\n        address payable wallet,\r\n        IERC20 token,\r\n        uint256 cap,\r\n        uint256 openingTime,\r\n        uint256 closingTime\r\n    )\r\n    Crowdsale(rate, wallet, token)\r\n    CappedCrowdsale(cap)\r\n    TimedCrowdsale(openingTime, closingTime)\r\n    public\r\n    {\r\n\r\n    }\r\n\r\n    /**\r\n     * @dev Returns the amount contributed so far by a specific user\r\n     * dev Restituisce l'importo contribuito finora da un utente specifico\r\n     * @param beneficiary Address of contributor\r\n     * beneficiario Indirizzo del collaboratore\r\n     * @return User contribution so far\r\n     * return Contributo dell'utente finora\r\n     */\r\n    function getUserContribution(address beneficiary) public view returns (uint256)\r\n    {\r\n        return contributions[beneficiary];\r\n    }\r\n\r\n    /**\r\n     * @dev Extend parent behavior requiring purchase to respect investor min/max funding cap.\r\n     * @param beneficiary Token purchaser\r\n     * @param weiAmount Amount of wei contributed\r\n     */\r\n    function _preValidatePurchase(address beneficiary, uint256 weiAmount) internal {\r\n        super._preValidatePurchase(beneficiary, weiAmount);\r\n        uint256 _existingContribution = contributions[beneficiary];\r\n        uint256 _newContribution = _existingContribution.add(weiAmount);\r\n        require(_newContribution >= investorMinCap && _newContribution <= investorHardCap);\r\n        contributions[beneficiary] = _newContribution;\r\n    }\r\n}\r\n",
  "sourcePath": "C:/Users/Paolo Bazzan/Desktop/Daap uni/code5/ico-tikvah/src/contracts/TIKVAHTokenCrowdsale.sol",
  "compiler": {
    "name": "solc",
    "version": "0.5.16+commit.9c3226ce.Emscripten.clang"
  },
  "schemaVersion": "3.0.22",
  "updatedAt": "2020-04-02T16:24:44.038Z",
  "devdoc": {
    "methods": {
      "buyTokens(address)": {
        "details": "low level token purchase ***DO NOT OVERRIDE*** This function has a non-reentrancy guard, so it shouldn't be called by another `nonReentrant` function.",
        "params": {
          "beneficiary": "Recipient of the token purchase"
        }
      },
      "cap()": {
        "return": "the cap of the crowdsale."
      },
      "capReached()": {
        "details": "Checks whether the cap has been reached.",
        "return": "Whether the cap was reached"
      },
      "closingTime()": {
        "return": "the crowdsale closing time."
      },
      "getUserContribution(address)": {
        "details": "Returns the amount contributed so far by a specific user dev Restituisce l'importo contribuito finora da un utente specifico",
        "params": {
          "beneficiary": "Address of contributor beneficiario Indirizzo del collaboratore"
        },
        "return": "User contribution so far return Contributo dell'utente finora"
      },
      "hasClosed()": {
        "details": "Checks whether the period in which the crowdsale is open has already elapsed.",
        "return": "Whether crowdsale period has elapsed"
      },
      "isOpen()": {
        "return": "true if the crowdsale is open, false otherwise."
      },
      "openingTime()": {
        "return": "the crowdsale opening time."
      },
      "rate()": {
        "return": "the number of token units a buyer gets per wei."
      },
      "token()": {
        "return": "the token being sold."
      },
      "wallet()": {
        "return": "the address where funds are collected."
      },
      "weiRaised()": {
        "return": "the amount of wei raised."
      }
    }
  },
  "userdoc": {
    "methods": {}
  }
}